:020000040000FA
:040000009FEF03F07B
:08000800056A046EFF0E0426D8
:10001000D8A005260000D8A01200030E016EE70E3E
:1000200002D8F4D7016AFE0F006E000000D000D0A5
:10003000E86A015AD8A01200000600D000D0F5D717
:10004000106A116A126A136A0A6A0B6A0C6A0D6AEC
:1000500009500810071006102CE0200EF36ED890FF
:1000600000360136023603360A360B360C360D36AC
:1000700009500D5C08E108500C5C05E107500B5C71
:1000800002E106500A5C0FE306500A5E0750D8A052
:10009000073C0B5E0850D8A0083C0C5E0950D8A065
:1000A000093C0D5ED8801036113612361336F32E09
:1000B000D6D71200200E106E0A6A0B6A0C6A0D6AFF
:1000C000D89000A00ED006500A260750D8B0073CA2
:1000D0000B260850D8B0083C0C260950D8B0093C73
:1000E0000D260D320C320B320A320332023201324B
:1000F0000032102EE5D7120015501118E8BE30D08E
:1001000015BE17D01450105CD8A0000CD8A4010C58
:100110001550115CD8A0000CD8A4010C1650125C2C
:10012000D8A0000CD8A4010C1750135CD8A0000C68
:10013000010C1050145CD8A0000CD8A4010C115074
:10014000155CD8A0000CD8A4010C1250165CD8A0E5
:10015000000CD8A4010C1350175CD8A0000C010CA3
:1001600011AE010C000C800E151A1450105C016EBB
:1001700019E2016C10C00EF014C010F00EC014F0A3
:1001800011C00EF015C011F00EC015F012C00EF027
:1001900016C012F00EC016F013C00EF017C013F008
:1001A0000EC017F01A0E016078D0145276E0006A83
:1001B00011500E6E15180F6E118E158E080E015E01
:1001C00008E317C000F016C017F015C016F0156A46
:1001D000F5D7012607E0D8901532163217320032D3
:1001E000012EF9D70FAE35D01750135E1650125AA4
:1001F0001550115A07E2D880000E135612561156A8
:10020000800E0E1A006C04E01306000E125A115AEA
:10021000040E016E11660DD012C011F013C012F061
:1002200000C013F0006A080E105E2DE3012EF2D715
:100230002AD011BE08D0D8900036133612361136A7
:10024000102EF7D720D018AC26D000AE24D0006AEC
:1002500011D017501326165012221550112206E302
:100260001132123213320032104A0FD018AC13D0B0
:1002700000AE11D0133E0FD0123E0DD0113E0BD068
:10028000D8801390EDD7106A02D018821068136AD4
:10029000126A800E116E0EAE119E13501200115094
:1002A0000C6E15180F6E145053E0105254E0105E8F
:1002B0007F0E03E2102603E24DD010264EE213C05B
:1002C0000AF012C00BF00C8E158E180E0E6E136A0B
:1002D000126A116A0BD017500A5C16500B5811E3C2
:1002E0000B6E0C6A17500A5E0BD004E215500C5CC2
:1002F000F2E007E317500A5E16500B5A15500C5ADD
:10030000D8801336123611360A360B360C360E2EBE
:10031000ECD711BE07D010521DE00F3210060E2A86
:100320000F36E3D718AC1FD007E217500A5E1650FD
:100330000B5A15500C5A17E3133E15D0123E13D02A
:10034000113E11D0113212321332103E0CD005D0B2
:10035000188604D01884106A02D018821068136AB4
:10036000126A800E116E0FAE119E135012001150C2
:100370000C6E15180F6E1050D8A414503CE01026C7
:100380007E0E03E3105E03E338D0105E33E313C048
:100390000AF012C00BF00C8E158E136A126A116AE5
:1003A000180E0E6E0C320B320A3206E3175013266B
:1003B00016501222155011221132123213320E2E03
:1003C000F1D711BE07D0133612361136105212E093
:1003D00010060C3418AC17D016E3133E14D0123E9E
:1003E00012D0113E10D0D880113212321332103E8A
:1003F0000AD003D01884106A02D018821068136AD9
:10040000126A800E116E0FAE119E1350120011C0B1
:100410000FF07F0E105C0E6E32E3118E106A0A6AC6
:1004200017080E6E0BE2080E0E262BE311C010F01B
:1004300012C011F013C012F0136A0CD0080E0E5E39
:1004400008E313C00AF012C013F011C012F0116AD1
:10045000F5D70E260E5208E0D89010321132123223
:1004600013320A320E2EF8D710BE0BD00FAE10D0BA
:10047000D880000E135612561156105609D0000E91
:1004800002D01882FF0E106E116E126E136E109E47
:1004900013501200126A136A10C000F013C010F05B
:1004A00000C013F012C000F011C012F000C011F033
:1004B000960E0E6E0F6A10AE07D0D880000E13563F
:1004C0001256115610560F8E105218E018AC0DD05F
:1004D00013AE0BD0123E09D0113E07D0103E05D00E
:1004E000D8801032113212320E2A080E0E2612C097
:1004F00013F011C012F010C011F015D0116613D016
:10050000080E0E5E125005E1080E0E5E135011E04B
:10051000136A116E13C012F0136A05D0D890133607
:10052000123611360E0611AEF9D70EC010F00FAE0E
:10053000119E13501200244D3E096E000000000071
:100540000000000067244D3E166F64004646464199
:100550003200E204006464000064CE07CE07CE07D8
:1005600063244D3E0F702A55232E5A261E5A003200
:10057000324B28000056244D3E0B82000000000044
:100580000000000300008A244D21008686244D3E91
:1005900016967E00000021000000000000640003A9
:1005A000000018001A000000BA244D3E00F7F7249E
:1005B0004D3E030304010104244D3E000A0A244D6C
:1005C0003EA25411000114980800386400EA00EAC1
:1005D00000CD004E00CE00EA00EA00EA00EA00EAA0
:1005E00000EA00EA00EA00EA00EA002108EA00EA7C
:1005F00000EA00EA00EA004901EA00EA00EA00EA4B
:1006000000EA00EA00EA00EA00EA00EA00EA00EA9A
:1006100000EA00EA00EA00EA00EA00EA00EA00EA8A
:1006200000EA00EA00EA00EA00EA00EA00EA00EA7A
:1006300000EA00EA00EA00EA00EA00EA0018000026
:1006400001010001000001010100010100000000A2
:1006500000000000000002000A010AFF1F10FF1F37
:100660000000030102F3244D3E2D5CC896000000FB
:10067000000000000000000000000000000000C8B2
:1006800000FA000000960000C800F4014600AA002D
:100690000108780096000364DA244D3E2F5E0000C6
:1006A0000000000000000000000000000000003713
:1006B00000FA0088130000000001010005145A0030
:1006C0005F005A00001416001B1400C814B8244D13
:1006D0003E16657E000000210000000000000800BA
:1006E00000000018001A00000026244D3E1869DCA6
:1006F00005DC05DC057503DC05DC05DC05DC05DC5B
:1007000005DC05DC05DC05DE244D3E106A0000003A
:10071000000000000000000000000000007A244DEE
:100720003E056B00000000006E244D3E066CF4FF99
:100730000000000061000102040810204080188CB5
:10074000A66AA68E33EF0EF028C01CF027C01BF05F
:1007500026C01AF025C019F01CC013F01BC012F0FF
:100760001AC011F019C010F052DE10C024F011C0F0
:1007700023F012C022F0216E21C010F022C011F02F
:1007800023C012F024C013F087DE13C020F012C083
:100790001FF011C01EF010C01DF020C02CF01FC0B3
:1007A0002BF01EC02AF01DC029F026BE41D028C063
:1007B00013F027C012F026C011F025C010F02CC095
:1007C00017F02BC016F02AC015F029C014F0B3ECB6
:1007D00000F013C030F012C02FF011C02EF010C086
:1007E0002DF0136A126A116A106A30C017F02FC018
:1007F00016F02EC015F02DC014F07CEC00F00108AE
:1008000017E0176A166A156A7F0E146E2CC013F073
:100810002BC012F02AC011F029C010F0B5EC00F086
:1008200013C02CF012C02BF011C02AF010C029F018
:100830001200938A8A8E939EAB6A19C0AFFF240E72
:10084000AC6EAB88AB8E12009EA8FED7AD6E1200C8
:10085000FBD7F2CF19F0F29EA66AA680A8CF1AF0B5
:10086000800EA66EA92A19BEF28E1200F2CF19F0E0
:10087000F29EA66AA684550EA76EAA0EA76EA68241
:10088000A6B2FED7800EA66EA92A19BEF28E12005D
:10089000E0DF1AC01CF0DDDF1AC01DF0DADF1AC07D
:1008A0001EF0D7DF1AC01FF012001BC0A8FFDEDF4A
:1008B0001CC0A8FFDBDF1DC0A8FFD8DF1EC0A8FF3B
:1008C000D5D719B0C28419A0C29419B2C28619A290
:1008D000C29619B4C28819A4C29819B6C28A19A6B8
:1008E000C29A435203E1C280C28205D0C280435003
:1008F00012EC00F0C282C2B2FED7C290C4CF1BF08D
:10090000C3CF1AF012001D5203E1246A236A30D0CB
:10091000226A216A206A1F6A1E6A1D04256E1E5003
:10092000255C13E31CC019F0CCDF1A501F261B50A6
:100930002022000E212222226A0EE82EFED700007D
:1009400000001E2A010E1E5CEAE222C003F021C054
:1009500002F020C001F01FC000F0096A086A076AAF
:100960001DC006F020EC00F011C024F010C023F0F0
:100970001200176A166A156A8D0E146E1CC013F0E9
:100980001BC012F01AC011F019C010F04FEC01F0AA
:1009900013C020F012C01FF011C01EF010C01DF0D7
:1009A00060C011F05FC010F04AEC02F013C024F0F8
:1009B00012C023F011C022F010C021F0176A166A8D
:1009C000156A890E146E24C013F023C012F022C0E1
:1009D00011F021C010F04FEC01F013C028F012C04C
:1009E00027F011C026F010C025F020C013F01FC062
:1009F00012F01EC011F01DC010F028C017F027C063
:100A000016F026C015F025C014F0B3EC00F013C0AA
:100A10008EF012C08DF011C08CF010C08BF08EC023
:100A200013F08DC012F08CC011F08BC010F064C0B8
:100A300017F063C016F062C015F061C014F0B7EC97
:100A400001F013C08EF012C08DF011C08CF010C0F8
:100A50008BF0176A166A156A900E146E1CC013F09C
:100A60001BC012F01AC011F019C010F04FEC01F0C9
:100A700013C020F012C01FF011C01EF010C01DF0F6
:100A800060C011F05FC010F04AEC02F013C024F017
:100A900012C023F011C022F010C021F0176A166AAC
:100AA000156A8C0E146E24C013F023C012F022C0FD
:100AB00011F021C010F04FEC01F013C028F012C06B
:100AC00027F011C026F010C025F020C013F01FC081
:100AD00012F01EC011F01DC010F028C017F027C082
:100AE00016F026C015F025C014F0B3EC00F013C0CA
:100AF00092F012C091F011C090F010C08FF0176A00
:100B0000166A156A900E146E1CC013F01BC012F00A
:100B10001AC011F019C010F04FEC01F013C020F012
:100B200012C01FF011C01EF010C01DF060C011F007
:100B30005FC010F04AEC02F013C024F012C023F0A2
:100B400011C022F010C021F0176A166A156A8C0EC7
:100B5000146E24C013F023C012F022C011F021C083
:100B600010F04FEC01F013C028F012C027F011C0B4
:100B700026F010C025F020C013F01FC012F01EC0D8
:100B800011F01DC010F028C017F027C016F026C0C5
:100B900015F025C014F0B3EC00F013C02CF012C017
:100BA0002BF011C02AF010C029F092C013F091C0B0
:100BB00012F090C011F08FC010F02CC017F02BC0B5
:100BC00016F02AC015F029C014F0B7EC01F013C0DC
:100BD00030F012C02FF011C02EF010C02DF030C038
:100BE00013F02FC012F02EC011F02DC010F068C00D
:100BF00017F067C016F066C015F065C014F0B7ECCA
:100C000001F013C092F012C091F011C090F010C02A
:100C10008FF08EC013F08DC012F08CC011F08BC01D
:100C200010F092C017F091C016F090C015F08FC070
:100C300014F0B5EC00F013C020F012C01FF011C08A
:100C40001EF010C01DF0176A166A200E156E8B0E6E
:100C5000146E20C013F01FC012F01EC011F01DC092
:100C600010F04FEC01F013C096F012C095F011C0D7
:100C700094F010C093F08EC013F08DC012F08CC0B1
:100C800011F08BC010F092C017F091C016F090C018
:100C900015F08FC014F0B5EC00F013C09EF012C038
:100CA0009DF011C09CF010C09BF01200176A166AEC
:100CB000156A7E0E146E9EC013F09DC012F09CC08B
:100CC00011F09BC010F0B7EC01F013C020F012C07F
:100CD0001FF011C01EF010C01DF0176A166A7A0EC0
:100CE000156E8E0E146E20C013F01FC012F01EC0C1
:100CF00011F01DC010F0B3EC00F013C08EF012C064
:100D00008DF011C08CF010C08BF08EC013F08DC030
:100D100012F08CC011F08BC010F08EC017F08DC097
:100D200016F08CC015F08BC014F0B7EC01F013C0B6
:100D300020F012C01FF011C01EF010C01DF020C026
:100D400013F01FC012F01EC011F01DC010F07EC0C5
:100D500017F07DC016F07CC015F07BC014F0B7EC26
:100D600001F013C024F012C023F011C022F010C013
:100D700021F0176A166A156A8E0E146E24C013F0DD
:100D800023C012F022C011F021C010F04FEC01F08E
:100D900013C092F012C091F011C090F010C08FF00B
:100DA0008EC013F08DC012F08CC011F08BC010F00B
:100DB0007AC017F079C016F078C015F077C014F03B
:100DC000B7EC01F013C020F012C01FF011C01EF0EC
:100DD00010C01DF0176A166A156A800E146E20C0C6
:100DE00013F01FC012F01EC011F01DC010F0B7ECC0
:100DF00001F013C024F012C023F011C022F010C083
:100E000021F092C013F091C012F090C011F08FC089
:100E100010F024C017F023C016F022C015F021C036
:100E200014F0B5EC00F013C092F012C091F011C0B4
:100E300090F010C08FF0176A166A156A810E146E52
:100E400092C013F091C012F090C011F08FC010F05A
:100E50004FEC01F013C020F012C01FF011C01EF0C3
:100E600010C01DF0176A166A156A8F0E146E76C0D0
:100E700013F075C012F074C011F073C010F0B7EC2D
:100E800001F013C024F012C023F011C022F010C0F2
:100E900021F020C013F01FC012F01EC011F01DC0C1
:100EA00010F024C017F023C016F022C015F021C0A6
:100EB00014F0B5EC00F013C092F012C091F011C024
:100EC00090F010C08FF072C013F071C012F070C0BB
:100ED00011F06FC010F08EC017F08DC016F08CC0EE
:100EE00015F08BC014F0B7EC01F013C020F012C065
:100EF0001FF011C01EF010C01DF020C013F01FC065
:100F000012F01EC011F01DC010F08EC017F08DC081
:100F100016F08CC015F08BC014F0B7EC01F013C0C4
:100F200024F012C023F011C022F010C021F0176A83
:100F3000166A156A920E146E24C013F023C012F0C4
:100F400022C011F021C010F04FEC01F013C028F0C6
:100F500012C027F011C026F010C025F06EC013F0AB
:100F60006DC012F06CC011F06BC010F08EC017F0A5
:100F70008DC016F08CC015F08BC014F0B7EC01F0EA
:100F800013C02CF012C02BF011C02AF010C029F0B1
:100F900028C013F027C012F026C011F025C010F0B1
:100FA0002CC017F02BC016F02AC015F029C014F081
:100FB000B5EC00F013C08EF012C08DF011C08CF0B3
:100FC00010C08BF0176A166A156A920E146E8EC0E6
:100FD00013F08DC012F08CC011F08BC010F04FECEC
:100FE00001F013C08EF012C08DF011C08CF010C053
:100FF0008BF0176A166A156A8E0E146E8EC013F087
:101000008DC012F08CC011F08BC010F04FEC01F0CD
:1010100013C020F012C01FF011C01EF010C01DF050
:10102000176A166A156A7F0E146E20C013F01FC06F
:1010300012F01EC011F01DC010F0B5EC00F013C08E
:101040008EF012C08DF011C08CF010C08BF069C012
:1010500010F06AC011F04AEC02F08EC017F08DC09B
:1010600016F08CC015F08BC014F0B7EC01F013C073
:101070008EF012C08DF011C08CF010C08BF0136A8E
:10108000126A116A930E106E1CC017F01BC016F086
:101090001AC015F019C014F0B3EC00F013C09AF0A8
:1010A00012C099F011C098F010C097F0176A166A34
:1010B000156A8B0E146E92C013F091C012F090C09E
:1010C00011F08FC010F04FEC01F013C020F012C0EF
:1010D0001FF011C01EF010C01DF09AC013F099C08F
:1010E00012F098C011F097C010F020C017F01FC088
:1010F00016F01EC015F01DC014F0B3EC00F013C0C4
:1011000024F012C023F011C022F010C021F0176AA1
:10111000500E166E430E156E8B0E146E24C013F017
:1011200023C012F022C011F021C010F0B7EC01F082
:1011300013C028F012C027F011C026F010C025F00F
:1011400028C013F027C012F026C011F025C010F0FF
:101150008EC017F08DC016F08CC015F08BC014F047
:101160004FEC01F013C09AF012C099F011C098F042
:1011700010C097F08AC013F089C012F088C011F037
:1011800087C010F09AC017F099C016F098C015F0FB
:1011900097C014F0B7EC01F013C020F012C01FF09C
:1011A00011C01EF010C01DF020C013F01FC012F0BF
:1011B0001EC011F01DC010F09AC017F099C016F0B3
:1011C00098C015F097C014F0B7EC01F013C024F0EC
:1011D00012C023F011C022F010C021F0176A166A65
:1011E000156A9E0E146E24C013F023C012F022C0A4
:1011F00011F021C010F04FEC01F013C08EF012C0BE
:101200008DF011C08CF010C08BF09AC013F099C013
:1012100012F098C011F097C010F086C017F085C08A
:1012200016F084C015F083C014F0B7EC01F013C0C1
:1012300020F012C01FF011C01EF010C01DF0176A80
:10124000166A156A8E0E146E20C013F01FC012F0BD
:101250001EC011F01DC010F04FEC01F013C092F051
:1012600012C091F011C090F010C08FF08EC013F03A
:101270008DC012F08CC011F08BC010F092C017F02E
:1012800091C016F090C015F08FC014F0B5EC00F0CE
:1012900013C020F012C01FF011C01EF010C01DF0CE
:1012A00020C013F01FC012F01EC011F01DC010F0BE
:1012B00082C017F081C016F080C015F07FC014F016
:1012C000B5EC00F013C024F012C023F011C022F0DE
:1012D00010C021F0176A166A156A830E146E24C0B6
:1012E00013F023C012F022C011F021C010F04FEC17
:1012F00001F013C028F012C027F011C026F010C072
:1013000025F09AC013F099C012F098C011F097C060
:1013100010F028C017F027C016F026C015F025C021
:1013200014F0B5EC00F013C09AF012C099F011C09F
:1013300098F010C097F012005D6A3C0E5D5C0EE202
:10134000050EF76E360EF66E5D50F626000EF7228D
:101350000900F55028EC04F05D2AEFD75D6A3C0ED9
:101360005D5C0EE2050EF76E720EF66E5D50F626AF
:10137000000EF7220900F55028EC04F05D2AEFD7A3
:101380005D6A3C0E5D5C0EE2050EF76EAE0EF66E0B
:101390005D50F626000EF7220900F55028EC04F007
:1013A0005D2AEFD75D6A3C0E5D5C0EE2050EF76EBE
:1013B000EA0EF66E5D50F626000EF7220900F55093
:1013C00028EC04F05D2AEFD75D6A3C0E5D5C0EE20E
:1013D000060EF76E260EF66E5D50F626000EF7220C
:1013E0000900F55028EC04F05D2AEFD75D6A3C0E49
:1013F0005D5C0EE2060EF76E620EF66E5D50F6262E
:10140000000EF7220900F55028EC04F05D2AEFD712
:101410005D6A3C0E5D5C0EE2060EF76E9E0EF66E89
:101420005D50F626000EF7220900F55028EC04F076
:101430005D2AEFD75D6A3C0E5D5C0EE2060EF76E2C
:10144000DA0EF66E5D50F626000EF7220900F55012
:1014500028EC04F05D2AEFD75D6A1F0E5D5C0EE29A
:10146000070EF76E160EF66E5D50F626000EF7228A
:101470000900F55028EC04F05D2AEFD71200240E85
:1014800028EC04F04D0E28EC04F03E0E28EC04F09D
:10149000060E28EC04F06D0E28EC04F0195028EC30
:1014A00004F01A5028EC04F01B5028EC04F01C50F7
:1014B00028EC04F0E86A28EC04F0E86A28EC04F070
:1014C0004B6A6B0E4B6E19504B1A1A504B1A1B502D
:1014D0004B1A1C504B1A4B5028EC04F0C80E04EF6A
:1014E00000F01AC0DAFF19C0D9FF010E1C6E1B50A4
:1014F00004E0D8901C36E82EFCD71C50DF141E6E7A
:101500001E5202E01D8001D01D9012001AC0DAFFA9
:1015100019C0D9FF010E1C6E1B5004E0D8901C3678
:10152000E82EFCD71C1C1D6E1D50DF161200050E88
:101530001C6E400E1D6E83EC04F024C045F023C0E9
:1015400044F044C010F045C011F04AEC02F050C025
:1015500017F04FC016F04EC015F04DC014F0B7ECA8
:1015600001F013C049F012C048F011C047F010C09C
:1015700046F049C013F048C012F047C011F046C011
:1015800010F054C017F053C016F052C015F051C0FF
:1015900014F0B7EC01F013C049F012C048F011C0CC
:1015A00047F010C046F0176A166A200E156E820EBC
:1015B000146E49C013F048C012F047C011F046C085
:1015C00010F0B7EC01F013C049F012C048F011C0A0
:1015D00047F010C046F049C013F048C012F047C0B1
:1015E00011F046C010F007EC02F04A6E1200670ED0
:1015F0004B6E240E28EC04F04D0E28EC04F03E0E49
:1016000028EC04F0090E28EC04F06E0E28EC04F02F
:101610004A5028EC04F04A504B1A5D0E28EC04F0B6
:101620005D0E4B1AE86A28EC04F0E86A28EC04F036
:10163000E86A28EC04F0410E28EC04F0410E4B1A45
:101640000A0E28EC04F00A0E4B1AC60E28EC04F021
:10165000C60E4B1A040E28EC04F0040E4B1A4B5025
:1016600028EF04F08A9C939C010E04EC00F08A8C15
:10167000939C12008A8C939C8B9494948B8E949E52
:10168000F1DF060E5D6E1A6A220E196E5DC01BF048
:1016900028DF1DA003D08B8E949E02D08B9E949E3B
:1016A000E1DF5D5202E05D06EED7246A236A070E91
:1016B0005D6E8A9C939C010E016EF40E13EC00F09B
:1016C00081A80DD0070EF76E360EF66E5D50F62629
:1016D000000EF7220900F5CF29F0295024268A8C24
:1016E000939C010E04EC00F05D5202E05D06E1D730
:1016F000070E5D6E8A9C939C010E016EF40E13EC36
:1017000000F081A80DD0070EF76E360EF66E5D5014
:10171000F626000EF7220900F5CF29F029502326DE
:101720008A8C939C010E04EC00F05D5202E05D0691
:10173000E1D78B84949424C026F023C025F01200B6
:101740008A8C939C8B9494948B8E949E8BDF060E44
:101750005D6E1A6A220E196E5DC01BF0C2DE1DA0FE
:1017600003D08B8E949E02D08B9E949E7BDF5D5225
:1017700002E05D06EED7236A070E5D6E8A9C939C9D
:10178000010E016EF40E13EC00F081A80DD0070ECF
:10179000F76E360EF66E5D50F626000EF722090043
:1017A000F5CF27F0275023268A8C939C010E04EC5A
:1017B00000F05D5202E05D06E1D78B84949423C073
:1017C00024F01200F70E226E55DF26C02BF025C044
:1017D0002AF0F90E226EB4DF24C02CF02C380F0B47
:1017E0002C6E036A026A2BC001F02AC000F0096A5D
:1017F000086A076A100E066E5AEC00F003C038F053
:1018000002C037F001C036F000C035F02C5035244E
:10181000396E000E36203A6E000E37203B6E000EF9
:1018200038203C6E39C010F03AC011F03BC012F0C5
:101830003CC013F04CEC02F013C030F012C02FF09B
:1018400011C02EF010C02DF030C034F02FC033F096
:101850002EC032F02DC031F01200FA0E226E0ADFD7
:1018600026C02BF025C02AF0FC0E226E69DF24C0B2
:101870002CF02C380F0B2C6E036A026A2BC001F07F
:101880002AC000F0096A086A076A100E066E5AEC50
:1018900000F003C038F002C037F001C036F000C0DD
:1018A00035F02C503524396E000E36203A6E000E7D
:1018B00037203B6E000E38203C6E39C010F03AC025
:1018C00011F03BC012F03CC013F04CEC02F013C01E
:1018D00030F012C02FF011C02EF010C02DF030C02B
:1018E00034F02FC033F02EC032F02DC031F0120092
:1018F0008A8C939C8B9494948B9E949EB3DE060E5C
:101900005D6E1A6A220E196E5DC01BF0EADD1DA025
:1019100003D08B8E949E02D08B9E949EA3DE5D524C
:1019200002E05D06EED7070E5D6E1A6A230E196E91
:101930005DC01BF071EC0AF01DA003D08B8E949E4D
:1019400002D08B9E949E8EDE5D5202E05D06EDD746
:101950008B849494120028C022F0F2DE24C02AF076
:101960002828226EEDDE24C02BF0396A386A2B500D
:10197000376E366A2A5036242C6E000E37202D6EB4
:101980002DC011F02CC010F04AEC02F013C031F061
:1019900012C030F011C02FF010C02EF029A043D09B
:1019A0001A6A2B0E196E070E1B6E71EC0AF01DA041
:1019B0003AD02C1E2D1E2C4A2D2A396A386A2DC089
:1019C00037F02CC036F0416840683F683E6839C047
:1019D00003F038C002F037C001F036C000F041C05B
:1019E00009F040C008F03FC007F03EC006F05AECD6
:1019F00000F003C03DF002C03CF001C03BF000C06D
:101A00003AF03DC013F03CC012F03BC011F03AC0B8
:101A100010F04CEC02F013C031F012C030F011C0E5
:101A20002FF010C02EF031C035F030C034F02FC090
:101A300033F02EC032F012002990880E286E8BDF12
:101A400035C013F034C012F033C011F032C010F0C2
:101A500007EC02F012C060F05F6E29808A0E286EDB
:101A60007ADF35C064F034C063F033C062F032C056
:101A700061F029808C0E286E6EDF35C068F034C0AE
:101A800067F033C066F032C065F029908E0E286E84
:101A900062DF35C013F034C012F033C011F032C031
:101AA00010F007EC02F012C06AF0696F2980900E06
:101AB000286E51DF35C06EF034C06DF033C06CF06D
:101AC00032C06BF02980920E286E45DF35C072F06F
:101AD00034C071F033C070F032C06FF02980940EC2
:101AE000286E39DF35C076F034C075F033C074F03D
:101AF00032C073F02980960E286E2DDF35C07AF043
:101B000034C079F033C078F032C077F02980980E75
:101B1000286E21DF35C07EF034C07DF033C07CF00C
:101B200032C07BF029809A0E286E15DF35C082F016
:101B300034C081F033C080F032C07FF029809C0E29
:101B4000286E09DF35C086F034C085F033C084F0DC
:101B500032C083F029809E0E286EFDDE35C08AF0EB
:101B600034C089F033C088F032C087F01200AAC0B8
:101B700013F0A9C012F0A8C011F0A7C010F034C033
:101B800017F033C016F032C015F031C014F0B3ECCA
:101B900000F013C038F012C037F011C036F010C09A
:101BA00035F0176A166A480E156E820E146E38C02C
:101BB00013F037C012F036C011F035C010F04FEC02
:101BC00001F013C03CF012C03BF011C03AF010C05D
:101BD00039F03CC028F03BC027F03AC026F039C0AD
:101BE00025F0A4EC03F02CC0AEF02BC0ADF02AC061
:101BF000ACF029C0ABF0176A166A156A7F0E146E36
:101C0000AEC013F0ADC012F0ACC011F0ABC010F01C
:101C1000B3EC00F013C0AEF012C0ADF011C0ACF0E8
:101C200010C0ABF0176A166A480E156E850E146E5A
:101C3000AEC013F0ADC012F0ACC011F0ABC010F0EC
:101C4000B7EC01F013C0AEF012C0ADF011C0ACF0B3
:101C500010C0ABF0AEC040F0ADC03FF0ACC03EF045
:101C6000ABC03DF01200426AC08E140E436E700E7F
:101C7000D36EC00E9B6E200E7E6E7F6AC16ABF0E51
:101C8000C06EF1CF4CF01A6A4C0E196E070E1B6E27
:101C900086EC0AF04CC0F1FF500E786E586A576A15
:101CA000566A556AB36B330E506E4F6E530E4E6EBE
:101CB000760E4D6EC80EA96E29EC04F01A521EE085
:101CC000D90E546ECE0E536E790E526E810E516E39
:101CD000A96A54C01EF053C01DF052C01CF051C080
:101CE0001BF055EC04F01E0E04EC00F0C80EA96EBB
:101CF000A86A36EC04F01E0E04EC00F0A96A48EC69
:101D000004F01FC054F01EC053F01DC052F01CC0A0
:101D100051F01A6A220E196E19EC04F09CEC09F0CD
:101D20008BDEF40E226E770E236E78EC0CF0F50E3F
:101D3000226E900E236E78EC0CF0070E056ED00E1E
:101D400005EC00F0AA6BA96BA86BA76B010E5E6E89
:101D5000060E5E5CD8B049D02DEC0CF034C0A6F075
:101D600033C0A5F032C0A4F031C0A3F0E2EC0BF018
:101D700034C0A2F033C0A1F032C0A0F031C09FF057
:101D8000A6C01CF0A5C01BF0A4C01AF0A3C019F097
:101D9000B9EC04F0A2C01CF0A1C01BF0A0C01AF066
:101DA0009FC019F056EC06F0AAC013F0A9C012F0BB
:101DB000A8C011F0A7C010F09AC017F099C016F093
:101DC00098C015F097C014F0B5EC00F013C0AAF05D
:101DD00012C0A9F011C0A8F010C0A7F0010E056E46
:101DE000F40E05EC00F05E2AB3D7176A166A200ECF
:101DF000156E810E146EAAC013F0A9C012F0A8C00F
:101E000011F0A7C010F04FEC01F013C0AAF012C0FF
:101E1000A9F011C0A8F010C0A7F00400552A000EC8
:101E20005622572258225550000A18E15650710A7E
:101E300015E15750020A12E15850000A0FE197ECE1
:101E40000AF0F7EC0AF0B32B0A0EB35D07E19CEC45
:101E500009F0F7EC0AF0F7EC0AF0B36B5550000A02
:101E6000D8A47ED05650E20AD8A47AD05750040A9B
:101E7000D8A476D05850000AD8A472D02DEC0CF01B
:101E800034C0A6F033C0A5F032C0A4F031C0A3F036
:101E9000E2EC0BF034C0A2F033C0A1F032C0A0F0ED
:101EA00031C09FF0A6C01CF0A5C01BF0A4C01AF062
:101EB000A3C019F0B9EC04F0A2C01CF0A1C01BF043
:101EC000A0C01AF09FC019F056EC06F0176A166A07
:101ED000480E156E850E146E9AC013F099C012F05C
:101EE00098C011F097C010F04FEC01F013C0B2F0A1
:101EF00012C0B1F011C0B0F010C0AFF09AC034F011
:101F000099C033F098C032F097C031F030DE40C055
:101F1000AEF03FC0ADF03EC0ACF03DC0ABF0AB5357
:101F200008E0D896ACAFD88604E4AE6BAD6BAC6B72
:101F3000AB6BAEC013F0ADC012F0ACC011F0ABC0D3
:101F400010F007EC02F010C01CF011C01BF012C022
:101F50001AF0196E3FEC0AF0586A576A566A556AC9
:101F60005CD782B832D0594A5A2A5950640A5A105A
:101F70002BE1290E176E5C0E166E0F0E156E7A0E83
:101F8000146E54C013F053C012F052C011F051C07F
:101F900010F0B5EC00F013C054F012C053F011C0B3
:101FA00052F010C051F0A96A54C01EF053C01DF089
:101FB00052C01CF051C01BF055EC04F01E0E04EC96
:101FC00000F02B0E28EC04F002D05A6A596A82BC49
:101FD00032D05B4A5C2A5B50640A5C102BE1290E0C
:101FE000176E5C0E166E0F0E156E7A0E146E54C0C0
:101FF00013F053C012F052C011F051C010F0B3EC06
:1020000000F013C054F012C053F011C052F010C0D1
:1020100051F0A96A54C01EF053C01DF052C01CF00C
:1020200051C01BF055EC04F01E0E04EC00F02D0E18
:0E20300028EC04F002D05C6A5B6A0300FED765
:020000040030CA
:03000100280B0EBB
:020005008880F1
:0600080003C003E0034009
:00000001FF
