:020000040000FA
:04000000DAEF01F042
:08000800056A046EFF0E0426D8
:10001000D8A005260000D8A01200030E016EE70E3E
:1000200002D8F4D7016AFE0F006E000000D000D0A5
:10003000E86A015AD8A01200000600D000D0F5D717
:10004000106A116A126A136A0A6A0B6A0C6A0D6AEC
:1000500009500810071006102CE0200EF36ED890FF
:1000600000360136023603360A360B360C360D36AC
:1000700009500D5C08E108500C5C05E107500B5C71
:1000800002E106500A5C0FE306500A5E0750D8A052
:10009000073C0B5E0850D8A0083C0C5E0950D8A065
:1000A000093C0D5ED8801036113612361336F32E09
:1000B000D6D71200800E151A1450105C016E19E28A
:1000C000016C10C00EF014C010F00EC014F011C07E
:1000D0000EF015C011F00EC015F012C00EF016C0D3
:1000E00012F00EC016F013C00EF017C013F00EC0C1
:1000F00017F01A0E016078D0145276E0006A1150A1
:100100000E6E15180F6E118E158E080E015E08E327
:1001100017C000F016C017F015C016F0156AF5D715
:10012000012607E0D8901532163217320032012E20
:10013000F9D70FAE35D01750135E1650125A15501E
:10014000115A07E2D880000E135612561156800E2F
:100150000E1A006C04E01306000E125A115A040E17
:10016000016E11660DD012C011F013C012F000C064
:1001700013F0006A080E105E2DE3012EF2D72AD08C
:1001800011BE08D0D8900036133612361136102E14
:10019000F7D720D018AC26D000AE24D0006A11D0FA
:1001A00017501326165012221550112206E3113251
:1001B000123213320032104A0FD018AC13D000AEF6
:1001C00011D0133E0FD0123E0DD0113E0BD0D8806F
:1001D0001390EDD7106A02D018821068136A126A61
:1001E000800E116E0EAE119E1350120011500C6E47
:1001F00015180F6E1050D8A414503CE010267E0E37
:1002000003E3105E03E338D0105E33E313C00AF05B
:1002100012C00BF00C8E158E136A126A116A180E3A
:100220000E6E0C320B320A3206E3175013261650AC
:100230001222155011221132123213320E2EF1D722
:1002400011BE07D0133612361136105212E01006C6
:100250000C3418AC17D016E3133E14D0123E12D053
:10026000113E10D0D880113212321332103E0AD013
:1002700003D01884106A02D018821068136A126AB8
:10028000800E116E0FAE119E1350120011C00FF0B0
:100290007F0E105C0E6E32E3118E106A0A6A170828
:1002A0000E6E0BE2080E0E262BE311C010F012C0EA
:1002B00011F013C012F0136A0CD0080E0E5E08E3A2
:1002C00013C00AF012C013F011C012F0116AF5D772
:1002D0000E260E5208E0D89010321132123213322C
:1002E0000A320E2EF8D710BE0BD00FAE10D0D88029
:1002F000000E135612561156105609D0000E02D099
:100300001882FF0E106E116E126E136E109E135037
:100310001200126A136A10C000F013C010F000C07F
:1003200013F012C000F011C012F000C011F0960ED0
:100330000E6E0F6A10AE07D0D880000E13561256FC
:10034000115610560F8E105218E018AC0DD013AE87
:100350000BD0123E09D0113E07D0103E05D0D880F8
:100360001032113212320E2A080E0E2612C013F06D
:1003700011C012F010C011F015D0116613D0080E84
:100380000E5E125005E1080E0E5E135011E0136A66
:10039000116E13C012F0136A05D0D89013361236BE
:1003A00011360E0611AEF9D70EC010F00FAE119E29
:1003B00013501200188C37D1AB6A938A8A8E939EA1
:1003C00019C0AFFF240EAC6E900EAB6E12009EA84B
:1003D000FED70001AD6E1200FAD7F2CF19F0F29EEF
:1003E000A66AA680A8CF1AF0800EA66EA92A19BE0A
:1003F000F28E1200F2DF1AC01CF0EFDF1AC01DF0FF
:10040000ECDF1AC01EF0E9DF1AC01FF01200F2CFB5
:1004100019F0F29EA66AA684550EA76EAA0EA76EC4
:10042000A682A6B2FED7A694800EA66EA92A19BEF1
:10043000F28E12001BC0A8FFEADF1CC0A8FFE7DF96
:100440001DC0A8FFE4DF1EC0A8FFE1D719B0C28419
:1004500019A0C29419B2C28619A2C29619B4C28850
:1004600019A4C29819B6C28A19A6C29A276603D0DF
:10047000C280C28205D0C280275012EC00F0C28236
:10048000C2B2FED7C290C4CF1BF0C3CF1AF0120085
:100490001D6603D0246A236A2ED0226A216A206A4C
:1004A0001F6A1E6A1D04256E1E50255C11E31CC0C8
:1004B00019F0CCDF1A501F261B502022000E2122DB
:1004C0002222140E12EC00F01E2A010E1E60ECD740
:1004D00022C003F021C002F020C001F01FC000F0D4
:1004E000096A086A076A1DC006F020EC00F011C016
:1004F00024F010C023F012001AC0DAFF19C0D9FF8F
:10050000010E1C6E1B5004E0D8901C36E82EFCD760
:100510001C1C1D6E1D50DF161200050E1C6E400EB9
:100520001D6EB6DF24C029F023C028F028C010F0CB
:1005300029C011F0EEDE34C017F033C016F032C01F
:1005400015F031C014F052DE13C02DF012C02CF0A3
:1005500011C02BF010C02AF02DC013F02CC012F0E7
:100560002BC011F02AC010F038C017F037C016F0B9
:1005700036C015F035C014F039DE13C02DF012C0AE
:100580002CF011C02BF010C02AF0176A166A200E4A
:10059000156E820E146E2DC013F02CC012F02BC0FD
:1005A00011F02AC010F022DE13C02DF012C02CF082
:1005B00011C02BF010C02AF02DC013F02CC012F087
:1005C0002BC011F02AC010F061DE2E6E1200670EF3
:1005D0002F6E240E01DF4D0EFFDE3E0EFDDE090EF6
:1005E000FBDE6E0EF9DE2E50F7DE2E502F1A5D0E5A
:1005F000F3DE5D0E2F1AE86AEFDEE86AEDDEE86AE8
:10060000EBDE410EE9DE410E2F1A0A0EE5DE0A0E80
:100610002F1AC60EE1DEC60E2F1A040EDDDE040E02
:100620002F1A2F50D9D6266AC08E140E276E700E40
:10063000D36EC00E9B6E200E7E6E7F6AC16ABF0EA7
:10064000C06EF1CF30F01A6A300E196E070E1B6EB5
:1006500053DF30C0F1FF500E786E3C6A3B6A3A6A55
:10066000396A346A336A200E326E770E316EC80EE4
:10067000A96EB3DE1A521CE0100E386E580E376E9B
:10068000450E366E810E356EA96A38C01EF037C031
:100690001DF036C01CF035C01BF0CCDE1E0E04EC85
:1006A00000F0C80EA96EA86AB2DE1E0E04EC00F0BF
:1006B000A96AA0DE1FC038F01EC037F01DC036F09A
:1006C0001CC035F01A6A220E196E76DE0400392A33
:1006D000000E3A223B223C223950000A0FE13A50E8
:1006E000710A0CE13B50020A09E13C50000A06E1A4
:1006F00014DF6DDF3C6A3B6A3A6A396A81BC2ED0EE
:100700003D4A3E2A3D50640A3E1027E1290E176EED
:100710005C0E166E0F0E156E7A0E146E38C013F046
:1007200037C012F036C011F035C010F05CEC00F0AC
:1007300013C038F012C037F011C036F010C035F0D9
:10074000A96A38C01EF037C01DF036C01CF035C095
:100750001BF070DE1E0E04EC00F002D03E6A3D6A13
:1007600081B82ED03F4A402A3F50640A401027E10A
:10077000290E176E5C0E166E0F0E156E7A0E146E25
:1007800038C013F037C012F036C011F035C010F089
:100790005AEC00F013C038F012C037F011C036F038
:1007A00010C035F0A96A38C01EF037C01DF036C041
:1007B0001CF035C01BF03EDE1E0E04EC00F002D033
:0A07C000406A3F6A83D70300FED7AA
:020000040030CA
:03000100280B0EBB
:020005008880F1
:0600080003C003E0034009
:00000001FF
